:020000040800F2
:100000008804002049020008E5070008DD07000811
:10001000E107000855050008690E0008000000000F
:10002000000000000000000000000000AD0B000810
:10003000590500080000000075080008C50C0008FC
:1000400063020008630200086302000863020008FC
:1000500063020008630200086302000863020008EC
:1000600063020008630200086302000863020008DC
:1000700063020008630200086302000863020008CC
:1000800063020008630200086302000863020008BC
:1000900063020008630200086302000863020008AC
:1000A000630200086302000863020008630200089C
:1000B000630200086302000863020008630200088C
:1000C000630200086302000863020008630200087C
:1000D000630200086302000863020008630200086C
:1000E000630200086302000863020008630200085C
:1000F000630200086302000863020008630200084C
:10010000630200086302000863020008630200083B
:10011000630200086302000863020008630200082B
:10012000630200086302000863020008630200081B
:10013000630200086302000863020008630200080B
:1001400063020008630200086302000863020008FB
:1001500063020008630200086302000863020008EB
:1001600063020008630200086302000863020008DB
:1001700063020008630200086302000863020008CB
:10018000630200086302000800F002F800F044F87F
:100190000AA090E8000C82448344AAF10107DA45E2
:1001A00001D100F039F8AFF2090EBAE80F0013F0F0
:1001B000010F18BFFB1A43F001031847DC0F0000C2
:1001C000FC0F0000103A24BF78C878C1FAD8520753
:1001D00024BF30C830C144BF04680C6070470000C1
:1001E0000023002400250026103A28BF78C1FBD840
:1001F000520728BF30C148BF0B607047642900F028
:100200008380782900F0BC80002070471FB500F083
:10021000A9FF1FBD10B510BD00F06AF91146FFF728
:10022000F5FF00F0B3FE00F088F903B4FFF7F2FF2A
:1002300003BC00F01BFE000030BF72B6704762B610
:10024000704780F30888704709488047094800478D
:10025000FEE7FEE7FEE7FEE7FEE7FEE7FEE7FEE776
:10026000FEE7FEE704480549034A054B70470000D6
:10027000C90C0008890100088800002088040020BB
:1002800088000020704700000FB4044910B503AA8D
:10029000029800F0FFF810BC5DF814FB0400002089
:1002A0002DE9F0410E460446002020622046E16818
:1002B000884730B3252805D0D4E901219047206A2A
:1002C000401CF2E7E168204600278847050018D067
:1002D000A5F14100192802D820354FF400673246B5
:1002E000294620462760FFF789FF40B1012804D046
:1002F000F61D26F007060836D8E7361DD6E728464D
:10030000DAE7206ABDE8F0812DE9F04106460024D5
:1003100010687529314616A510D0AFF3008000286B
:1003200002DA404213A507E031688A0701D512A519
:1003300002E0490704D511A5012401E0AFF30080D4
:1003400000210A2206F1240709E0B0FBF2FCB0FB11
:10035000F2F302FB1C00303078541846491C002888
:10036000F3D123462A463046BDE8F04100F038B8C4
:10037000000000002D0000002B0000002000000005
:1003800070B504460D4621461068AFF30080218801
:10039000090502D50F4A7A4402E00E4A7A440E3229
:1003A000002104F1240305E000F00F060009965D2A
:1003B0005E54491C0028F7D120780023000704D59B
:1003C000702D02D009B1022311322046BDE87040E1
:1003D00000F006B8D40D00007047704770477047B2
:1003E0002DE9F0470D4699469246044600F124084F
:1003F0000168880604D5E06921F01001216000E061
:100400000120A84201DD471B00E00027A1697A19FD
:1004100002EB0900081AA0612078C00602D4204629
:10042000AFF30080002608E0D4E901211AF80600A5
:100430009047206A401C761C20624E45F4DB2078F1
:10044000C0060AD52046AFF3008006E0D4E90121BA
:1004500030209047206A401C2062381EA7F1010717
:10046000F4DC07E0D4E9012118F805009047206A80
:10047000401C2062281EA5F10105F3DC2046AFF3E5
:1004800000802078000602D50220BDE8F087012018
:10049000FBE70000074B70B50D467B4400F011F8F8
:1004A0000446284600F020F810B14FF0FF3070BD30
:1004B000204670BD930A000001694A1C0261087859
:1004C000704700B58FB0CDE9013100210591054994
:1004D0007944CDE9031011466846FFF7E1FE0FB0FD
:1004E00000BD0000E5FFFFFF007B00F080007047CB
:1004F000754600F02BF8AE4605006946534620F0DD
:100500000700854618B020B5FFF7ACFEBDE82040D7
:100510004FF000064FF000074FF000084FF0000BBF
:1005200021F00701AC46ACE8C009ACE8C009ACE872
:10053000C009ACE8C0098D46704710B50446AFF35A
:1005400000802046BDE81040FFF76FBE00487047AE
:100550002400002000BFFEE77047000030B10749CB
:10056000096841F48061054A116005E003490968A2
:1005700021F48061014A116070470000003C024094
:1005800070B504460A460026092502B909E0012A89
:1005900001D1160205E0022A01D1160201E04FF452
:1005A000407600F09FF80546092D28D115480068CF
:1005B00020F4407013490860084600683043086022
:1005C0000846006820F0F80008600846006844F01B
:1005D000020108430B4908600846006840F4803077
:1005E000086000F07FF805460648006820F0020029
:1005F000044908600846006820F0F80008602846B2
:1006000070BD0000103C024009201349096801F444
:100610008031B1F5803F01D101201CE00E4909680D
:1006200001F0100109B1062015E00B49096801F439
:10063000807109B102200EE00749096801F0EF015D
:1006400009B1072007E00449096801F0020109B176
:10065000082000E0092070470C3C02400348006875
:1006600040F000400149086070470000103C024023
:1006700030B502460C46092500F034F80546092D30
:1006800019D10E48006820F440700C4908600846F3
:10069000006840F4007008600846006840F00100FF
:1006A0000860146000F01EF805460448006820F059
:1006B000010002490860284630BD0000103C02409D
:1006C0000548006800F0004028B1044802490C3990
:1006D0000860034808607047103C024023016745EA
:1006E000AB89EFCD08B509200090FFF78DFF009092
:1006F00002E0FFF789FF00909DF800000128F8D084
:100700009DF8000008BDF0B50A4600210023002432
:1007100000BF3DE0012505FA01F3156805EA030471
:100720009C4234D105684F000326BE40B5430560A6
:1007300015794E00B5400668354305601579012DE1
:1007400002D01579022D16D185684F000326BE40D0
:10075000B543856055794E00B54086683543856060
:10076000456801268E40B5434560456896798E40C0
:10077000B6B235434560C5684F000326BE40B54359
:10078000C560D5794E00B540C6683543C560491C83
:100790001029BFD3F0BDF0B5002300244D07ED0EA6
:1007A00002FA05F3CE1000F1200555F826504E0749
:1007B000F70E0F26BE40B543CF1000F1200646F8D5
:1007C0002750CE1000F1200555F8265045EA0304C5
:1007D000CE1000F1200545F82640F0BD00BFFEE731
:1007E00000BFFEE77047000070B5002100230F2214
:1007F000C4781CB3174C246804F4E064C4F5E064C6
:10080000C4F30721C1F10404E3B20A4144789C40D7
:10081000E1B28478144021430C07210E0E4C057878
:100820006155047804F01F050124AC4005786D1172
:10083000AD0005F1E025C5F8004109E0047804F0B9
:100840001F050124AC40054D0678761145F8264079
:1008500070BD00000CED00E000E400E080E100E08D
:1008600002490143024A1160704700000000FA0586
:100870000CED00E07047000029B1064A12680243FF
:10088000044B1A6004E0034A12688243014B1A6069
:10089000704700003038024029B1064A126802430E
:1008A000044B1A6004E0034A12688243014B1A6049
:1008B0007047000044380240F0B5002100220024B7
:1008C000022500260223324F3F6807F00C0121B1B8
:1008D000042905D0082937D105E02E4F076036E0FE
:1008E0002D4F076033E02A4F3F1F3F68C7F3805604
:1008F000274F3F1F3F6807F03F036EB1264FB7FBFE
:10090000F3F7DFF88CC0ACF1040CDCF800C0CCF3DA
:10091000881C07FB0CF40CE01E4FB7FBF3F7DFF865
:1009200070C0ACF1040CDCF800C0CCF3881C07FBF1
:100930000CF4174F3F1F3F68C7F301477F1C7D0032
:10094000B4FBF5F7076002E0124F076000BF00BF7D
:100950000F4F3F6807F0F0010909104F7A5C0768F4
:10096000D74047600A4F3F6807F4E051890A0B4FB0
:100970007A5C4768D7408760054F3F6807F460415D
:10098000490B064F7A5C4768D740C760F0BD00004E
:10099000083802400024F40000127A001000002001
:1009A0002DE9F84F04460E4617464FF0090800257A
:1009B000A946AA46AB46B4F1006F05D3B6F1006F65
:1009C00002D304F0030008B1BDE8F88FFFF778FE0A
:1009D0000020FFF7C3FD2546B14604EB870A1A48FD
:1009E000854215D211E0284600F090F8401C58B11D
:1009F000284600F02BF802210090FFF7C1FD804649
:100A0000B8F1090F01D002E02D1D5545EBD300BF11
:100A1000B8F1090F11D10DE0484600F077F8834690
:100A200059462046FFF724FE092800D004E0241D83
:100A300009F104095445EFD300BF0120FFF78EFDF3
:100A4000FFF70CFE00BFBFE70000FF1F01461C4878
:100A5000814201D2002070471A48814201D2082009
:100A6000F9E71948814201D21020F4E71748814282
:100A700001D21820EFE71648814201D22020EAE790
:100A80001448814201D22820E5E71348814201D26F
:100A90003020E0E71148814201D23820DBE71048DE
:100AA000814201D24020D6E70E48814201D248203F
:100AB000D1E70D48814201D25020CCE75820CAE747
:100AC000004000080080000800C000080000010885
:100AD00000000208000004080000060800000808E2
:100AE00000000A0800000C0800000E0830B503469C
:100AF0000C461546002206E0184600F007F844F8B8
:100B000022001B1D521CAA42F6D330BD01460868C4
:100B1000704700002DE9F04704460E4617464FF097
:100B200009080025A946B4F1006F02D304F00300C0
:100B300008B1BDE8F087FFF7C3FD0020FFF70EFD09
:100B4000254604EB87091848854215D211E028464E
:100B5000FFF7DCFF401C58B12846FFF777FF8246BD
:100B60000221FFF70DFD8046B8F1090F01D002E028
:100B70002D1D4D45EBD300BFB8F1090F0CD108E096
:100B800020463168FFF774FD092800D003E0241DDA
:100B9000361D4C45F4D300BF0120FFF7DFFCFFF703
:100BA0005DFD00BFC5E700000000FF1F70470000AB
:100BB0000CB50020019000903448006840F480306B
:100BC0003249086000BF3148006800F400300090EE
:100BD0000198401C0190009818B90198B0F5A04FF9
:100BE000F1D12A48006800F4003010B101200090D3
:100BF00001E0002000900098012846D123484030B1
:100C0000006840F080502149403108602048006869
:100C100040F440401E4908601C48083000681B49E9
:100C2000083108600846006840F400400860084643
:100C3000006840F4A05008601648091F0860081FAB
:100C4000006840F08070091F086000BF0F4800680E
:100C500000F000700028F9D040F205700E490860DD
:100C60000A480830006820F003000849083108608D
:100C70000846006840F00200086000BF03480830E2
:100C8000006800F00C000828F8D10CBD00380240C4
:100C90000070004008544007003C0240042808D17E
:100CA0004FF0E021096941F004014FF0E0221161A9
:100CB00007E04FF0E021096921F004014FF0E02244
:100CC000116170477047000010B51548006840F486
:100CD0007000134908601348006840F00100114992
:100CE000086000200F49083108600E4800680E496E
:100CF00008400C4908600D48091D0860081F00687D
:100D000020F48020091F0860002006490C3108608B
:100D1000FFF74EFF4FF0006001498039086010BDB9
:100D200088ED00E000380240FFFFF6FE103000249E
:100D300021B1828942F40052828104E082894DF619
:100D4000FF731A4082817047F0B5034600240026E5
:100D50000025002040F66A17B94200D100BF1846AE
:100D6000C1F3421401F01F06012707FA06F5012C12
:100D700001D10C3004E0022C01D1103000E014301D
:100D80001AB107682F43076002E00768AF430760A6
:100D9000F0BD00002DE9FF4705460E460024A146A0
:100DA00000BFA046B08900B100BF2C8A24F4405493
:100DB000F08804432C82AC8941F20C608443B088F3
:100DC00031890843718908430443AC81AC8A24F417
:100DD0004074B0890443AC826846FFF76DFD20483B
:100DE000854202D01F48854202D1DDF80C9001E017
:100DF000DDF80890A88900F4004040B109EBC90073
:100E000000EB091031684900B0FBF1F707E009EB8E
:100E1000C90000EB091031688900B0FBF1F76420CC
:100E2000B7FBF0F004012009642101FB1078A889C8
:100E300000F4004040B1322000EBC800B0FBF1F0FC
:100E400000F00700044308E0322000EB08106421A2
:100E5000B0FBF1F000F00F0004432C81BDE8FF87E8
:100E6000001001400014014000BFFEE700BF7047C2
:100E700010B504466FF00400FFF710FFE11704EB14
:100E80005171C1F3C701074A11701046007800EB99
:100E90004001C1EBC0104FF6FF7101EAC0000249EA
:100EA000088010BD000000200200002070B504463C
:100EB0004FF4077094FBF0F0C6B24FF4077094FB48
:100EC000F0F100FB114085B205E04FF4077000F02F
:100ED00009F8701EC6B2002EF7D115B1284600F0F1
:100EE00001F870BD0146114A12884A434FF0E023D1
:100EF0005A6100229A611A46126942F001021A618F
:100F000000BF4FF0E022106900F001021AB100F4B6
:100F10008032002AF5D04FF0E022126922F001025F
:100F20004FF0E0231A6100229A617047020000200E
:100F300000BF054A128802F04002002AF9D0C2B26E
:100F4000014B9A80704700000010014070B50446C4
:100F50000D461646324629462046FFF721FD70BD54
:100F600010B50446206807490840B0F1005F08D179
:100F70006068054908602068FFF763F90248006867
:100F8000804710BD0000FE2F200000200EB500207D
:100F9000029001904FF4A060FFF762FCA820FFF7D9
:100FA00067FF4FF4E13000F087F8012202A91D48E5
:100FB000FFF79CFD1CA00299FFF766F9012201A929
:100FC0001848001FFFF792FD0198401C08B9002047
:100FD00001901EA00199FFF757F90298B0F1AA3FBE
:100FE00010D14FF0FF3000901DA0FFF74DF92049C0
:100FF0002048019AFFF7AAFF012269460948FFF736
:1010000089FD02E01CA0FFF73FF94FF47A70FFF76B
:101010004DFF22A0FFF738F91648FFF7A1FF002087
:101020000EBD0000FCFF0F085B626F6F746C6F6198
:101030006465725D75706461746520737461747544
:1010400073203A20307825780D0A000062696E20FE
:101050006C656E677468203A2025640D0A000000F4
:101060007570646174696E672E2E2E0D0A00000083
:101070000000080800000108746865726520697343
:10108000206E6F2041505020746F20626520757073
:101090006461746564210D0A000000004150502015
:1010A000737461727420746F20776F726B2E2E2EA2
:1010B000200D0A0D0A00000010B588B00446012179
:1010C0000846FFF7D9FB01211020FFF7E5FB0722B7
:1010D00009212248FFF75FFB07220A211F48FFF77B
:1010E0005AFB4FF4C060069002208DF81C008DF86A
:1010F0001D0000208DF81E0001208DF81F0006A99C
:101100001648FFF700FB02940020ADF80C00ADF884
:101110000E00ADF81000ADF814000C20ADF8120070
:1011200002A90F48FFF736FE01210D48FFF700FE28
:10113000012240F225510A48FFF706FE25208DF8CE
:10114000040003208DF805008DF8060001208DF8BD
:10115000070001A8FFF748FB08B010BD00000240DF
:10116000001001404FF04070E1EE100A704730313E
:1011700032333435363738394142434445464030BE
:101180005800303132333435363738396162636470
:101190006566403078000000B811000800000020AB
:1011A00024000000C4010008DC1100082400002015
:1011B00064040000E00100080000000000000000DE
:1011C0000000000000000000000000000102030415
:0C11D000010203040607080900000000EB
:040000050800018965
:00000001FF
