:020000040801F1
:100000005007002071020108F9070108B107010833
:10001000F507010825050108BB0E010800000000D6
:10002000000000000000000000000000610B01085B
:10003000290501080000000089080108790C010861
:100040008B0201088B0201088B0201088B02010858
:100050008B0201088B0201088B0201088B02010848
:100060008B0201088B0201088B0201088B02010838
:100070008B0201088B0201088B0201088B02010828
:100080008B0201088B0201088B0201088B02010818
:100090008B0201088B0201088B0201088B02010808
:1000A0008B0201088B0201088B0201088B020108F8
:1000B0008B0201088B0201088B0201088B020108E8
:1000C0008B0201088B0201088B0201088B020108D8
:1000D0008B020108E50C01088B0201088B02010864
:1000E0008B0201088B0201088B0201088B020108B8
:1000F0008B0201088B0201088B0201088B020108A8
:100100008B0201088B0201088B0201088B02010897
:100110008B0201088B0201088B0201088B02010887
:100120008B0201088B0201088B0201088B02010877
:100130008B0201088B0201088B0201088B02010867
:100140008B0201088B0201088B0201088B02010857
:100150008B0201088B0201088B0201088B02010847
:100160008B0201088B0201088B0201088B02010837
:100170008B0201088B0201088B0201088B02010827
:100180008B0201088B02010800F002F800F061F810
:100190000AA090E8000C82448344AAF10107DA45E2
:1001A00001D100F056F8AFF2090EBAE80F0013F0D3
:1001B000010F18BFFB1A43F001031847BC100000E1
:1001C000DC1000000A444FF0000C10F8013B13F063
:1001D000070408BF10F8014B1D1108BF10F8015BA0
:1001E000641E05D010F8016B641E01F8016BF9D193
:1001F00013F0080F1EBF10F8014BAD1C0C1B09D1EA
:100200006D1E58BF01F801CBFAD505E014F8016B5B
:1002100001F8016B6D1EF9D59142D6D370470000ED
:100220000023002400250026103A28BF78C1FBD8FF
:10023000520728BF30C148BF0B607047642900F0E7
:100240007780002070471FB501F00CF81FBD10B576
:1002500010BD00F035F91146FFF7F5FF00F0DCFEA8
:1002600000F053F903B4FFF7F2FF03BC00F027FEE0
:100270000948804709480047FEE7FEE7FEE7FEE73A
:10028000FEE7FEE7FEE7FEE7FEE7FEE70448054976
:10029000034A054B704700007D0C010889010108E5
:1002A000500300205007002050030020704700003A
:1002B0000FB4044910B503AA029800F0D3F810BC9B
:1002C0005DF814FB040000202DE9F0410E460446C1
:1002D000002020622046E168884730B3252805D0F9
:1002E000D4E901219047206A401CF2E7E1682046EA
:1002F00000278847050018D0A5F14100192802D829
:1003000020354FF400673246294620462760FFF724
:1003100095FF40B1012804D0F61D26F007060836E7
:10032000D8E7361DD6E72846DAE7206ABDE8F0812F
:100330002DE9F0410646002410687529314616A5BE
:1003400010D0AFF30080002802DA404213A507E086
:1003500031688A0701D512A502E0490704D511A525
:10036000012401E0AFF3008000210A2206F12407F6
:1003700009E0B0FBF2FCB0FBF2F302FB1C003030F2
:1003800078541846491C0028F3D123462A463046A3
:10039000BDE8F04100F00CB8000000002D000000A6
:1003A0002B00000020000000704770477047704726
:1003B0002DE9F0470D4699469246044600F124087F
:1003C0000168880604D5E06921F01001216000E091
:1003D0000120A84201DD471B00E00027A1697A192E
:1003E00002EB0900081AA0612078C00602D420465A
:1003F000AFF30080002608E0D4E901211AF80600D6
:100400009047206A401C761C20624E45F4DB207821
:10041000C0060AD52046AFF3008006E0D4E90121EA
:1004200030209047206A401C2062381EA7F1010747
:10043000F4DC07E0D4E9012118F805009047206AB0
:10044000401C2062281EA5F10105F3DC2046AFF315
:1004500000802078000602D50220BDE8F087012048
:10046000FBE70000074B70B50D467B4400F011F828
:100470000446284600F020F810B14FF0FF3070BD60
:10048000204670BD8F0B000001694A1C026108788C
:10049000704700B58FB0CDE90131002105910549C4
:1004A0007944CDE9031011466846FFF70DFF0FB000
:1004B00000BD0000E5FFFFFF007B00F080007047FB
:1004C000754600F02BF8AE4605006946534620F00D
:1004D0000700854618B020B5FFF7D8FEBDE82040DC
:1004E0004FF000064FF000074FF000084FF0000BF0
:1004F00021F00701AC46ACE8C009ACE8C009ACE8A3
:10050000C009ACE8C0098D46704710B50446AFF38A
:1005100000802046BDE81040FFF7A4BE00487047A9
:10052000EC02002000BFFEE77047000030B1074931
:10053000096841F48061054A116005E003490968D2
:1005400021F48061014A116070470000003C0240C4
:1005500070B504460A460026092502B909E0012AB9
:1005600001D1160205E0022A01D1160201E04FF482
:10057000407600F09FF80546092D28D115480068FF
:1005800020F4407013490860084600683043086052
:100590000846006820F0F80008600846006844F04B
:1005A000020108430B4908600846006840F48030A7
:1005B000086000F07FF805460648006820F0020059
:1005C000044908600846006820F0F80008602846E2
:1005D00070BD0000103C024009201349096801F475
:1005E0008031B1F5803F01D101201CE00E4909683E
:1005F00001F0100109B1062015E00B49096801F46A
:10060000807109B102200EE00749096801F0EF018D
:1006100009B1072007E00449096801F0020109B1A6
:10062000082000E0092070470C3C024003480068A5
:1006300040F000400149086070470000103C024053
:1006400030B502460C46092500F034F80546092D60
:1006500019D10E48006820F440700C490860084623
:10066000006840F4007008600846006840F001002F
:100670000860146000F01EF805460448006820F089
:10068000010002490860284630BD0000103C0240CD
:100690000548006800F0004028B1044802490C39C0
:1006A0000860034808607047103C0240230167451A
:1006B000AB89EFCD08B509200090FFF78DFF0090C2
:1006C00002E0FFF789FF00909DF800000128F8D0B4
:1006D0009DF8000008BDF0B50A4600210023002463
:1006E00000BF3DE0012505FA01F3156805EA0304A2
:1006F0009C4234D105684F000326BE40B5430560D7
:1007000015794E00B5400668354305601579012D11
:1007100002D01579022D16D185684F000326BE4000
:10072000B543856055794E00B54086683543856090
:10073000456801268E40B5434560456896798E40F0
:10074000B6B235434560C5684F000326BE40B54389
:10075000C560D5794E00B540C6683543C560491CB3
:100760001029BFD3F0BDF0B5002300244D07ED0ED6
:1007700002FA05F3CE1000F1200555F826504E0779
:10078000F70E0F26BE40B543CF1000F1200646F805
:100790002750CE1000F1200555F8265045EA0304F5
:1007A000CE1000F1200545F82640F0BD01837047CA
:1007B00000BFFEE71CB50121202000F067F84FF4D0
:1007C000C060009001208DF8040000208DF8060024
:1007D00003208DF8050001208DF8070069460448C4
:1007E000FFF779FF4FF4C0610148FFF7DFFF1CBD41
:1007F0000014024000BFFEE77047000070B5002102
:1008000000230F22C4781CB3174C246804F4E0645E
:10081000C4F5E064C4F30721C1F10404E3B20A4162
:1008200044789C40E1B28478144021430C07210EA7
:100830000E4C05786155047804F01F050124AC4086
:1008400005786D11AD0005F1E025C5F8004109E01E
:10085000047804F01F050124AC40054D067876119C
:1008600045F8264070BD00000CED00E000E400E01B
:1008700080E100E002490143024A11607047000034
:100880000000FA050CED00E07047000029B1064AAF
:1008900012680243044B1A6004E0034A1268824360
:1008A000014B1A60704700003038024029B1064AF7
:1008B00012680243044B1A6004E0034A1268824340
:1008C000014B1A607047000044380240F0B5002127
:1008D00000220024022500260223324F3F6807F041
:1008E0000C0121B1042905D0082937D105E02E4F8C
:1008F000076036E02D4F076033E02A4F3F1F3F6807
:10090000C7F38056274F3F1F3F6807F03F036EB184
:10091000264FB7FBF3F7DFF88CC0ACF1040CDCF822
:1009200000C0CCF3881C07FB0CF40CE01E4FB7FB97
:10093000F3F7DFF870C0ACF1040CDCF800C0CCF3C6
:10094000881C07FB0CF4174F3F1F3F68C7F3014794
:100950007F1C7D00B4FBF5F7076002E0124F0760D3
:1009600000BF00BF0F4F3F6807F0F0010909104FAB
:100970007A5C0768D74047600A4F3F6807F4E05148
:10098000890A0B4F7A5C4768D7408760054F3F68FC
:1009900007F46041490B064F7A5C4768D740C7604F
:1009A000F0BD0000083802400024F40000127A0074
:1009B000140200202DE9F04FADF6040D07468846DD
:1009C00091460025BA464446AB461DE0E07806064F
:1009D000A07846EA0046607846EA0026207806437A
:1009E000241D2846691C8DB201A941F82060B5F587
:1009F000007F07D100254FF40072504600F064F8E4
:100A00000AF5006A0BF1040BCB45DFD325B12A466A
:100A100001A9504600F058F80DF6040DBDE8F08F1E
:100A200001461C48814201D2002070471A48814289
:100A300001D20820F9E71948814201D21020F4E7D9
:100A40001748814201D21820EFE71648814201D2AF
:100A50002020EAE71448814201D22820E5E7134824
:100A6000814201D23020E0E71148814201D2382092
:100A7000DBE71048814201D24020D6E70E48814290
:100A800001D24820D1E70D48814201D25020CCE765
:100A90005820CAE7004000080080000800C0000895
:100AA0000000010800000208000004080000060819
:100AB0000000080800000A0800000C0800000E08EA
:100AC00001460868704700002DE9F04704460E46CD
:100AD00017464FF009080025A946B4F1006F02D36C
:100AE00004F0030008B1BDE8F087FFF7D1FD002056
:100AF000FFF71CFD254604EB87091848854215D2EF
:100B000011E02846FFF7DCFF401C58B12846FFF7EC
:100B100087FF82460221FFF71BFD8046B8F1090FCF
:100B200001D002E02D1D4D45EBD300BFB8F1090FF8
:100B30000CD108E020463168FFF782FD092800D07B
:100B400003E0241D361D4C45F4D300BF0120FFF700
:100B5000EDFCFFF76BFD00BFC5E700000000FF1FC5
:100B6000704700000CB500200190009034480068E8
:100B700040F480303249086000BF3148006800F41A
:100B8000003000900198401C0190009818B901981D
:100B9000B0F5A04FF1D12A48006800F4003010B140
:100BA0000120009001E0002000900098012846D12B
:100BB00023484030006840F08050214940310860AF
:100BC0002048006840F440401E4908601C48083036
:100BD00000681B49083108600846006840F400407E
:100BE00008600846006840F4A05008601648091FD5
:100BF0000860081F006840F08070091F086000BF8F
:100C00000F48006800F000700028F9D040F205702D
:100C10000E4908600A480830006820F003000849BF
:100C2000083108600846006840F00200086000BF14
:100C300003480830006800F00C000828F8D10CBD0B
:100C4000003802400070004008544007003C024059
:100C5000042808D14FF0E021096941F004014FF068
:100C6000E022116107E04FF0E021096921F0040161
:100C70004FF0E022116170477047000010B5154831
:100C8000006840F47000134908601348006840F0A1
:100C900001001149086000200F49083108600E4822
:100CA00000680E4908400C4908600D48091D08609D
:100CB000081F006820F48020091F086000200649F2
:100CC0000C310860FFF74EFF4FF00060014980399A
:100CD000086010BD88ED00E000380240FFFFF6FE1E
:100CE0001030002410B540F225510B4800F026F8D2
:100CF00080B1094800F0DCF8C4B208480068C82890
:100D000008D2074805490968445404480068401C53
:100D10000249086010BD0000001001400C000020D6
:100D20002402002021B1828942F40052828104E031
:100D300082894DF6FF731A408281704770B5024672
:100D4000002400230025002040F66A16B14200D19D
:100D500000BFC1F3421501F01F03012606FA03F399
:100D6000012D02D19689334006E0022D02D1168A68
:100D7000334001E0968A33400C12012606FA04F44F
:100D80001688344013B10CB1012000E0002070BD82
:100D9000F0B50346002400260025002040F66A171F
:100DA000B94200D100BF1846C1F3421401F01F063A
:100DB000012707FA06F5012C01D10C3004E0022CC2
:100DC00001D1103000E014301AB107682F430760DA
:100DD00002E00768AF430760F0BD00002DE9FF4760
:100DE00005460E460024A14600BFA046B08900B1CA
:100DF00000BF2C8A24F44054F08804432C82AC8930
:100E000041F20C608443B0883189084371890843FA
:100E10000443AC81AC8A24F44074B0890443AC82AE
:100E20006846FFF753FD2048854202D01F4885429F
:100E300002D1DDF80C9001E0DDF80890A88900F4FB
:100E4000004040B109EBC90000EB091031684900CE
:100E5000B0FBF1F707E009EBC90000EB09103168BE
:100E60008900B0FBF1F76420B7FBF0F00401200922
:100E7000642101FB1078A88900F4004040B13220C1
:100E800000EBC800B0FBF1F000F00700044308E0FD
:100E9000322000EB08106421B0FBF1F000F00F00ED
:100EA00004432C81BDE8FF8700100140001401407D
:100EB00001468888C0F30800704700BFFEE700BF06
:100EC0007047000001460D480068A8B10C48006852
:100ED0000A4A126890420BD0084800680860074828
:100EE0000068074A10600020044A10600120704723
:100EF0000020034A1060FAE70020F8E70C00002009
:100F000010000020F0B502460B46FF24FF251646D0
:100F100009E016F8010B80EA04010648405C80EA0B
:100F200005040548455C181EA3F10103F1D145EA0B
:100F30000420F0BD140000201401002010B5044668
:100F40006FF00400FFF784FEE11704EB5171C1F369
:100F5000C701074A11701046007800EB4001C1EB51
:100F6000C0104FF6FF7101EAC0000249088010BDB1
:100F7000000000200200002070B504464FF4077006
:100F800094FBF0F0C6B24FF4077094FBF0F100FB55
:100F9000114085B205E04FF4077000F009F8701EAB
:100FA000C6B2002EF7D115B1284600F001F870BD89
:100FB0000146114A12884A434FF0E0235A61002249
:100FC0009A611A46126942F001021A6100BF4FF09D
:100FD000E022106900F001021AB100F48032002A08
:100FE000F5D04FF0E022126922F001024FF0E02329
:100FF0001A6100229A6170470200002000BF054A72
:10100000128802F04002002AF9D0C2B2014B9A8045
:1010100070470000001001401CB500243E4903C980
:10102000CDE900013D483E4908604FF4A060FFF75C
:1010300021FCA820FFF782FF4FF4E13000F0BCF85C
:10104000FFF7B8FB67E0601CC4B2642094FBF0F1CA
:1010500000FB114000284DD132A0FFF729F9684666
:10106000FFF730FF002845D00098851E0026009825
:10107000401E3249095C0098801E304A105C41EAEB
:10108000002729461046FFF73DFF0646BE422AD1FB
:101090002BA0FFF70DF929492E48009AFFF78AFC8B
:1010A0002DA00099FFF704F9022269462F48FFF7A7
:1010B0000BFD2FA0FFF7FCF84FF4FA60FFF75CFF81
:1010C00000BFBFF34F8F1648001D006800F4E060BA
:1010D0002D490843001D1249091D0860BFF34F8FB9
:1010E00000BF00BFFEE729A0FFF7E2F82CA0FFF742
:1010F000DFF800BF142094FBF0F100FB114038B979
:101100002C48006808B9012000E000202949086047
:101110000A20FFF731FF96E770120108000001086E
:1011200008ED00E05B415050325D546869732069FE
:101130007320415050320D0A0000000024020020AC
:10114000D3C3BBA7B3CCD0F2D0A3D1E9B3C9B9A65E
:10115000210D0A0000800808B4FAC2EBB3A4B6C897
:101160003A256442797465730D0A0000F8FF0F0890
:10117000C9FDBCB6B3C9B9A621D7BCB1B8B8B4CE05
:10118000BB2E2E2E0D0A00000000FA05D3C3BBA70C
:10119000B3CCD0F2D0A3D1E9CAA7B0DC210D0A00AC
:1011A000BCCCD0F8D6B4D0D0BEC9B3CCD0F2210DCF
:1011B0000A000000A482424210B588B00446012112
:1011C0000846FFF763FB01211020FFF76FFB0722A2
:1011D00009212248FFF7C7FA07220A211F48FFF713
:1011E000C2FA4FF4C060069002208DF81C008DF802
:1011F0001D0000208DF81E0001208DF81F0006A99B
:101200001648FFF768FA02940020ADF80C00ADF81C
:101210000E00ADF81000ADF814000C20ADF812006F
:1012200002A90F48FFF7DAFD01210D48FFF77AFD0B
:10123000012240F225510A48FFF7AAFD25208DF82A
:10124000040003208DF805008DF8060001208DF8BC
:10125000070001A8FFF7D2FA08B010BD0000024055
:10126000001001404FF04070E1EE100A704700009E
:1012700000000000AAAAAAAA9812010800000020F3
:1012800024020000C4010108CC130108240200203C
:101290002C0500002002010801152808C181400129
:1012A000C0804104690C2908E918A91C091A3009F1
:1012B0001638093660092E70092F6000FF00C0C182
:1012C00001C30302C2C60607C705C5C404CC0C0D82
:1012D000CD0FCFCE0E0ACACB0BC90908C8D8181932
:1012E000D91BDBDA1A1EDEDF1FDD1D1CDC14D4D592
:1012F00015D71716D6D21213D311D1D010F0303122
:10130000F133F3F23236F6F737F53534F43CFCFDC1
:101310003DFF3F3EFEFA3A3BFB39F9F83828E8E951
:1013200029EB2B2AEAEE2E2FEF2DEDEC2CE42425D1
:10133000E527E7E62622E2E323E12120E0A0606141
:10134000A163A3A26266A6A767A56564A46CACAD01
:101350006DAF6F6EAEAA6A6BAB69A9A86878B8B9B1
:1013600079BB7B7ABABE7E7FBF7DBDBC7CB4747511
:10137000B577B7B67672B2B373B17170B050909161
:10138000519353529296565797559594549C5C5D41
:101390009D5F9F9E5E5A9A9B5B99595898884849D1
:1013A000894B8B8A4A4E8E8F4F8D4D4C8C44848551
:1013B00045874746868242438341818042402D01D2
:0C13C000020304040500060708090000F1
:040000050801018964
:00000001FF
