:020000040801F1
:10000000D82F002089020108B30B0108E10A01087A
:10001000250B0108B50701085B1D01080000000061
:10002000000000000000000000000000711801083E
:10003000B9070108000000004D0C010889190108EA
:10004000A3020108A3020108A30201086D1501081B
:10005000A3020108A3020108A3020108A3020108E8
:10006000A3020108A3020108A3020108A3020108D8
:10007000A3020108A3020108A3020108A3020108C8
:10008000A3020108A3020108A3020108A3020108B8
:10009000A3020108A3020108A3020108A3020108A8
:1000A000A3020108A3020108A3020108A302010898
:1000B000A3020108A3020108F5190108A30201081F
:1000C000A3020108A3020108A3020108A302010878
:1000D000A3020108851B0108A3020108A30201086D
:1000E000A3020108C10E0108A3020108A30201082E
:1000F000A3020108A3020108A3020108A302010848
:10010000A3020108A3020108A3020108A302010837
:10011000A3020108A3020108A3020108A302010827
:10012000A3020108A3020108A3020108A302010817
:10013000A3020108A3020108A3020108A302010807
:10014000A3020108A3020108A3020108A3020108F7
:10015000A3020108A3020108A3020108A3020108E7
:10016000A3020108A3020108A3020108A3020108D7
:10017000A3020108A3020108A3020108A3020108C7
:10018000A3020108A302010800F002F800F06DF8D4
:100190000AA090E8000C82448344AAF10107DA45E2
:1001A00001D100F062F8AFF2090EBAE80F0013F0C7
:1001B000010F18BFFB1A43F001031847B8320000C3
:1001C000D83200000A444FF0000C10F8013B13F045
:1001D000070408BF10F8014B1D1108BF10F8015BA0
:1001E000641E05D010F8016B641E01F8016BF9D193
:1001F00013F0080F1EBF10F8014BAD1C0C1B09D1EA
:100200006D1E58BF01F801CBFAD505E014F8016B5B
:1002100001F8016B6D1EF9D59142D6D370470000ED
:100220000023002400250026103A28BF78C1FBD8FF
:10023000520728BF30C148BF0B607047642900F0E7
:10024000B380752900F0B080782900F0E980632937
:1002500000F05B82732900F06082002070471FB5B8
:1002600003F036F81FBD10B510BD00F071FA11464D
:10027000FFF7F5FF01F04CFE00F08FFA03B4FFF733
:10028000F2FF03BC01F072FD0948804709480047AE
:10029000FEE7FEE7FEE7FEE7FEE7FEE7FEE7FEE736
:1002A000FEE7FEE704480549034A054B7047000096
:1002B0008D19010889010108D82B0020D82F0020B2
:1002C000D82B0020704700000FB4044910B503AAD2
:1002D000029800F027FA10BC5DF814FB080000201B
:1002E0000FB41CB5074B06AA7B44694600900598DD
:1002F00000F0E9F90020694600F0F8F91CBC5DF84F
:1003000014FB00000104000070B504468569006814
:10031000C10601D5302600E02026C00707D070BDF9
:10032000D4E9012130469047206A401C20626D1EAE
:10033000F6D570BD70B5044685690078C00707D151
:1003400070BDD4E9012120209047206A401C206222
:100350006D1EF6D570BD70B50C460546012A05D058
:100360002878800600D5EA69002302E0012305E031
:100370005B1C934202D2E05C0028F9D1A869E61820
:10038000C01AA861286A184428622846FFF7BCFFF3
:1003900004E0D5E9012114F8010B9047B442F8D3E9
:1003A0002846FFF7C7FF70BD2DE9F041064600243F
:1003B00010687529314616A510D0AFF300800028CB
:1003C00002DA404213A507E031688A0701D512A579
:1003D00002E0490704D511A5012401E0AFF3008034
:1003E00000210A2206F1240709E0B0FBF2FCB0FB71
:1003F000F2F302FB1C00303078541846491C0028E8
:10040000F3D123462A463046BDE8F04100F0FCB85F
:10041000000000002D0000002B0000002000000064
:1004200070B504460D4621461068AFF30080218860
:10043000090502D50F4A7A4402E00E4A7A440E3288
:10044000002104F1240305E000F00F060009965D89
:100450005E54491C0028F7D120780023000704D5FA
:10046000702D02D009B1022311322046BDE8704040
:1004700000F0CAB8AA2E00002DE9F05F89460446B4
:100480004FF0000ADFF874B1FB44C0F820A020460A
:10049000E1688847002874D0252806D0D4E90121D6
:1004A0009047206A401C2062F1E700265F46204604
:1004B000E16888472028054607DB312D05D27819E9
:1004C00010F8200C08B10643F1E7B00701D526F07B
:1004D0000406C4F81CA00027C4F818A02A2D09D0CF
:1004E000284601F03CFC38B304EB8708303DC8F8DF
:1004F000185019E059F8041B204604EB870291615B
:10050000E1688847012F054618D1E069002820DA04
:1005100026F020061DE0D8F8180000EB800005EB5F
:1005200040003038C8F818002046E1688847054682
:1005300001F015FC0028EED1012F0AD02E2D08D194
:100540002046E16888477F1C0546022F46F02006BA
:10055000C4DBA069002803DA404246F00106A0612E
:10056000F00701D026F010066C2D0BD0682D09D0B5
:100570004C2D39D06A2D35D0742D35D07A2D33D00D
:1005800016E038E0E1682F4620468847B842054625
:1005900009D16C2F26D04FF48060E16806432046D5
:1005A0008847054604E06C2F1AD04FF4807006434C
:1005B0000DB3A5F14100192802D8203546F4006694
:1005C0004A462946204626604E46FFF737FE80B150
:1005D00001280BD0F61D26F0070000F1080956E7A8
:1005E0004020E4E78020D8E70020D6E706F10409A0
:1005F0004DE7284652E7206ABDE8F09F802E0000B4
:1006000070477047704770472DE9F0470D4699468F
:100610009246044600F124080168880604D5E06982
:1006200021F01001216000E00120A84201DD471BFC
:1006300000E00027A1697A1902EB0900081AA061FD
:100640002078C00602D42046FFF75EFE002608E0B0
:10065000D4E901211AF806009047206A401C761C54
:1006600020624E45F4DB2078C0060AD52046FFF70D
:100670004BFE06E0D4E9012130209047206A401C5F
:100680002062381EA7F10107F4DC07E0D4E901215C
:1006900018F805009047206A401C2062281EA5F12A
:1006A0000105F3DC2046FFF745FE2078000602D561
:1006B0000220BDE8F0870120FBE7000001694A1C29
:1006C00002610878704700B58FB0CDE90131002193
:1006D000059105497944CDE9031011466846FFF7B5
:1006E000CBFE0FB000BD0000E5FFFFFF0A6802F877
:1006F000010B0A60704710B5436913B1AFF3008076
:1007000001E0FFF728FE012010BD127800F124015E
:100710000A7000224A700122EDE711684FF0FF32A3
:10072000E9E70000074B70B50D467B44FFF7CBFFB0
:100730000446284600F008F810B14FF0FF3070BDB5
:10074000204670BDC7170000007B00F08000704796
:10075000754600F02BF8AE4605006946534620F07A
:100760000700854618B020B5FFF79CFDBDE8204086
:100770004FF000064FF000074FF000084FF0000B5D
:1007800021F00701AC46ACE8C009ACE8C009ACE810
:10079000C009ACE8C0098D46704710B50446AFF3F8
:1007A00000802046BDE81040FFF768BD0048704754
:1007B000782B002000BFFEE7704700000149086069
:1007C00070470000143C0140002123498279002A2F
:1007D0003AD00A46126803689A430B461A600A1D0B
:1007E000126803689A430B1D1A60027911440A6863
:1007F00003681A430A60184A0832126803689A4369
:10080000154B08331A601A1D126803689A43124B7D
:100810000C331A604279102A0ED11A1F126803682D
:100820001A430D4B08331A601A1D126803681A43E5
:10083000094B0C331A600DE00749427911440A68EC
:1008400003681A430A6005E0027911440A680368E4
:100850009A430A6070470000003C014030B10749EC
:10086000096841F48061054A116005E0034909689F
:1008700021F48061014A116070470000003C024091
:1008800070B504460A460026092502B909E0012A86
:1008900001D1160205E0022A01D1160201E04FF44F
:1008A000407600F09FF80546092D28D115480068CC
:1008B00020F440701349086008460068304308601F
:1008C0000846006820F0F80008600846006844F018
:1008D000020108430B4908600846006840F4803074
:1008E000086000F07FF805460648006820F0020026
:1008F000044908600846006820F0F80008602846AF
:1009000070BD0000103C024009201349096801F441
:100910008031B1F5803F01D101201CE00E4909680A
:1009200001F0100109B1062015E00B49096801F436
:10093000807109B102200EE00749096801F0EF015A
:1009400009B1072007E00449096801F0020109B173
:10095000082000E0092070470C3C02400348006872
:1009600040F000400149086070470000103C024020
:1009700030B502460C46092500F034F80546092D2D
:1009800019D10E48006820F440700C4908600846F0
:10099000006840F4007008600846006840F00100FC
:1009A0000860146000F01EF805460448006820F056
:1009B000010002490860284630BD0000103C02409A
:1009C0000548006800F0004028B1044802490C398D
:1009D0000860034808607047103C024023016745E7
:1009E000AB89EFCD08B509200090FFF78DFF00908F
:1009F00002E0FFF789FF00909DF800000128F8D081
:100A00009DF8000008BDF0B50A460021002300242F
:100A100000BF3DE0012505FA01F3156805EA03046E
:100A20009C4234D105684F000326BE40B5430560A3
:100A300015794E00B5400668354305601579012DDE
:100A400002D01579022D16D185684F000326BE40CD
:100A5000B543856055794E00B5408668354385605D
:100A6000456801268E40B5434560456896798E40BD
:100A7000B6B235434560C5684F000326BE40B54356
:100A8000C560D5794E00B540C6683543C560491C80
:100A90001029BFD3F0BDF0B5002300244D07ED0EA3
:100AA00002FA05F3CE1000F1200555F826504E0746
:100AB000F70E0F26BE40B543CF1000F1200646F8D2
:100AC0002750CE1000F1200555F8265045EA0304C2
:100AD000CE1000F1200545F82640F0BD0183704797
:100AE00000BFFEE71CB50121202000F0B1F84FF453
:100AF000C060009001208DF8040000208DF80600F1
:100B000003208DF8050001208DF807006946044890
:100B1000FFF779FF4FF4C0610148FFF7DFFF1CBD0D
:100B20000014024000BFFEE73EB541F6FF7401210C
:100B3000080700F09DF8012000F082F8002000F086
:100B400007FB45F25001884231D0012000F044F902
:100B500004E0601C84B20A2001F064F9412000F036
:100B60001BF90028F5D00CB901203EBD4FF4807070
:100B700000F04EF9012000F045F97F200190FF20A0
:100B8000029000200090684600F0B0FA002338225E
:100B90003B21172000F0A0FC0123052211460E2066
:100BA00000F088FC45F25001002000F07DFD00209F
:100BB000DBE7704770B5002100230F22C4781CB317
:100BC000174C246804F4E064C4F5E064C4F307211E
:100BD000C1F10404E3B20A4144789C40E1B2847854
:100BE000144021430C07210E0E4C05786155047802
:100BF00004F01F050124AC4005786D11AD0005F12E
:100C0000E025C5F8004109E0047804F01F0501243F
:100C1000AC40054D0678761145F8264070BD0000C1
:100C20000CED00E000E400E080E100E00249014357
:100C3000024A1160704700000000FA050CED00E068
:100C4000014908627047000000000E427047000032
:100C500029B1064A12680243044B1A6004E0034AB1
:100C600012688243014B1A6070470000303802401E
:100C700029B1064A12680243044B1A6004E0034A91
:100C800012688243014B1A607047000040380240EE
:100C900029B1064A12680243044B1A6004E0034A71
:100CA00012688243014B1A607047000044380240CA
:100CB000F0B5002100220024022500260223324F35
:100CC0003F6807F00C0121B1042905D0082937D16C
:100CD00005E02E4F076036E02D4F076033E02A4FC6
:100CE0003F1F3F68C7F38056274F3F1F3F6807F0FD
:100CF0003F036EB1264FB7FBF3F7DFF88CC0ACF1C2
:100D0000040CDCF800C0CCF3881C07FB0CF40CE0EE
:100D10001E4FB7FBF3F7DFF870C0ACF1040CDCF842
:100D200000C0CCF3881C07FB0CF4174F3F1F3F6833
:100D3000C7F301477F1C7D00B4FBF5F7076002E0B5
:100D4000124F076000BF00BF0F4F3F6807F0F00170
:100D50000909104F7A5C0768D74047600A4F3F681F
:100D600007F4E051890A0B4F7A5C4768D7408760E7
:100D7000054F3F6807F46041490B064F7A5C4768AE
:100D8000D740C760F0BD0000083802400024F400DE
:100D900000127A001802002010B50146002200233C
:100DA00000204A11012A02D10A4C236808E0022AD5
:100DB00003D1084C7034236802E0064C7434236875
:100DC00001F01F02012494401C400CB1012000E0FE
:100DD000002010BD003802400021094A1170117036
:100DE000012802D0042808D103E00121044A11702F
:100DF00004E00521024A117000E000BF00BF704707
:100E00007038024001490860704700003C0E4742BC
:100E1000002100F44072B2F5407F08D1094A116800
:100E200021F4F811084A02401143064A1160054AAC
:100E300068321268C0F30B031A43024B68331A601E
:100E40007047000008380240FFFCFF0F38B502462B
:100E50000024009400230020CA24184D2C60532441
:100E60002C6041B1154C1C3C24681443134D1C3DAF
:100E70002C6001201EE0114C1C3C246894430F4D53
:100E80001C3D2C6000BF0D4C183C246804EA122362
:100E9000009C641C0094009CB4F5803F01D0002BA2
:100EA000F1D0064C183C246804EA12240CB9002046
:100EB00000E00120FF24014D2C6038BD24280040B3
:100EC00010B54FF4807000F0A3F8012805D100029E
:100ED00000F028F803A0FFF7F7F94FF40030FFF710
:100EE0006DFC10BD414C41524D2041210D0A0000C6
:100EF000014600BF080900EB8000420001F00F002E
:100F00001044C0B270470146002204E0501CC2B237
:100F1000A1F10A00C1B20A29F8DA100741EA10600B
:100F20007047000081B241F08001044A126802F06B
:100F3000800262EA0101014A116070470C280040FA
:100F4000002101098AB242F08002044B1B6803F0C1
:100F5000800363EA0202014B1A6070470C280040CC
:100F600008B50022009200200021104A126802F009
:100F70004002CAB9421E0D4B1A6000BF0B4A1268EC
:100F800002F04001009A521C0092009AB2F5803F94
:100F900001D00029F2D0054A126802F040020AB1DD
:100FA000012002E0002000E0012008BD0C280040E4
:100FB0000348006820F08000014908607047000085
:100FC0000C28004070B506460C4600250E48006807
:100FD0000E4900EA0105280CE070C5F3042060709A
:100FE00005F03F00A070C5F3423020705EB9E07894
:100FF000FFF77EFFE0706078FFF77AFF6070A078FF
:10100000FFF776FFA07070BD042800403FFFFF008F
:1010100010B5014600200022054B1B68054C03EA71
:10102000040202EA01030BB1012000E0002010BD20
:101030000C2800407F3F010070B506460C46002595
:101040000F4800680F4900EA0105C5F3054020700C
:10105000C5F30620607005F07F00A07005F48000E5
:10106000000CE0705EB92078FFF742FF20706078D6
:10107000FFF73EFF6070A078FFF73AFFA07070BDE9
:10108000002800407F7F7F00CA22174B1A6053223E
:101090001A6091B1144A1C3A126820F004031A43F2
:1010A000114B1C3B1A60104A1C32126800F00403FA
:1010B0001A430D4B1C331A6011E00B4A1C3A12689C
:1010C00020F004039A43084B1C3B1A60064A1C326A
:1010D000126800F004039A43034B1C331A60FF228A
:1010E000014B1A60704700002428004030B50446C8
:1010F0000025CA201549086053200860FFF730FF1B
:1011000000B91DE011481C38006820F040000F496C
:101110001C39086008460068216808430B491C39DF
:1011200008600A491439A068086008460068A18868
:1011300040EA0140054914390860FFF739FF0125ED
:10114000FF2002490860284630BD000024280040E6
:1011500008B501460020009004480090009800EB7C
:10116000810000900098006808BD000050280040F1
:101170002DE9F04105460E461446002765B936486C
:10118000006800F0400000B102E00020E07000BF05
:10119000A06800B919E018E02F48006800F040008E
:1011A00020B12078FFF7A4FE074602E00020E0709F
:1011B00000BFA06820B9207BFFF79AFE074604E035
:1011C000207BFFF795FE074600BF95B1207800040D
:1011D000617840EA0120A1780843E17840EA0140C3
:1011E000217B40EA0160A1680843616840EA010789
:1011F0001BE02078FFF787FE4FEA00486078FFF792
:1012000082FE48EA0028A078FFF77DFE48EA000841
:10121000E07848EA0048207BFFF775FE48EA006066
:10122000A1680843616840EA0107CA200A491C31E5
:10123000086053200860B6F5807F03D1064814305B
:10124000076002E0044818300760FF2002491C31A3
:101250000860BDE8F0810000082800402DE9F04159
:1012600005460C46002600274DB9607800F01000B6
:10127000102804D1607820F010000A30607005B9A1
:1012800008E06078FFF734FE0646A078FFF730FEEE
:10129000064600BF55B1E0780004617840EA0120BD
:1012A000A1780843217840EA413611E0E078FFF761
:1012B0002AFE4FEA00486078FFF725FE48EA00283A
:1012C000A078FFF720FE48EA0008207848EA403678
:1012D000CA201249086053200860FFF741FE08B990
:1012E000002714E00E4830400C4920390860FFF711
:1012F0005FFE0A481C38006800F0200030B900F09A
:101300004FF908B9002702E0012700E00127FF207C
:10131000024908603846BDE8F081000024280040FA
:101320003FFFFF002DE9F04105460C46002600274F
:101330004DB92E48006800F0400000B102E00020E6
:10134000E07000BF0DE02948006800F0400020B1C7
:101350002078FFF7CDFD064602E00020E07000BFD8
:1013600000BF55B120780004617840EA0120A178DF
:101370000843E17840EA014611E02078FFF7C3FD19
:101380004FEA00486078FFF7BEFD48EA0028A078E1
:10139000FFF7B9FD48EA0008E07848EA0046CA20AD
:1013A00012491C31086053200860FFF7D9FD08B9C5
:1013B000002713E00E4830400C4908390860FFF759
:1013C000F7FD0A48006800F0200030B900F0E8F8A6
:1013D00008B9002702E0012700E00127FF200349A8
:1013E0001C3108603846BDE8F08100000828004044
:1013F0007F7F7F00CA21054A116053211160034994
:1014000010390860FF211160704700002428004057
:10141000F0B587B004460D4616461F4600214FF42E
:101420008070FFF713FD8DF800508DF801608DF886
:10143000027000208DF803008DF810404FF08040BE
:101440000390002002900098019001AA4FF480714F
:101450000020FFF78DFE4FF48050FFF771FD4FF431
:101460000030FFF7ABF901210803FFF70DFE012162
:101470000802FFF7EBFC4FF40030059000208DF8D8
:10148000180008208DF8190001208DF81A0005A811
:10149000FFF79AF9292006490870022048708870E1
:1014A0000120C8700846FFF785FB07B0F0BD0000BB
:1014B00000000020F8B504460D4617461E468DF87C
:1014C00002708DF801508DF800608DF80340694678
:1014D0000020FFF7C3FEF8BDF8B504460D461746D9
:1014E0001E468DF800408DF801508DF802708DF881
:1014F000036069460020FFF715FFF8BD7CB505467F
:101500000C46002000F094F8284600F079F82046B8
:10151000FFF770FF4FF48040FFF712FD4FF480009B
:10152000FFF74CF901218803FFF7AEFD012000F021
:101530007FF84FF48000009000208DF80400082010
:101540008DF8050001208DF806006846FFF73CF98C
:101550000320054908700220487088700120C87077
:101560000846FFF727FB7CBD0000002010B54FF4B4
:101570008060FFF74DFD01280AD18002FFF7D2FC01
:101580000648006808B9012000E00020034908600F
:101590004FF48000FFF712F910BD0000A88242420C
:1015A00008B50022009200200021CA22134B1A60C5
:1015B00053221A60114A183A126822F0A0020F4B07
:1015C000183B1A6000BF0D4A183A126802F0200159
:1015D000009A521C0092009AB2F5003F01D00029F7
:1015E000F1D0064A183A126802F020020AB101202E
:1015F00000E00020FF22014B1A6008BD24280040B3
:10160000CA210A4A11605321116008491C3909682E
:1016100021F00701054A1C3A11601146096801438F
:101620001160FF21014A116070470000242800402A
:1016300018B501460023009300220020CA23194C4C
:1016400023605323236049B1164B1C3B1B6843F4B2
:101650008063144C1C3C236001201FE0114B1C3B99
:101660001B6823F480630F4C1C3C236000BF0D4BB0
:10167000183B1B6803F00402009B5B1C0093009B5B
:10168000B3F5803F01D0002AF1D0064B183B1B6810
:1016900003F004030BB9002000E00120FF23014CFC
:1016A000236018BD2428004008B500220092044A97
:1016B0000092009A02EB80020092009A116008BD2D
:1016C000502800402DE9F04FADF6040D074688463E
:1016D00091460025BA464446AB461DE0E078060632
:1016E000A07846EA0046607846EA0026207806435D
:1016F000241D2846691C8DB201A941F82060B5F56A
:10170000007F07D100254FF40072504600F064F8C6
:101710000AF5006A0BF1040BCB45DFD325B12A464D
:1017200001A9504600F058F80DF6040DBDE8F08F01
:1017300001461C48814201D2002070471A4881426C
:1017400001D20820F9E71948814201D21020F4E7BC
:101750001748814201D21820EFE71648814201D292
:101760002020EAE71448814201D22820E5E7134807
:10177000814201D23020E0E71148814201D2382075
:10178000DBE71048814201D24020D6E70E48814273
:1017900001D24820D1E70D48814201D25020CCE748
:1017A0005820CAE7004000080080000800C0000878
:1017B00000000108000002080000040800000608FC
:1017C0000000080800000A0800000C0800000E08CD
:1017D00001460868704700002DE9F04704460E46B0
:1017E00017464FF009080025A946B4F1006F02D34F
:1017F00004F0030008B1BDE8F087FFF7E1F800202E
:10180000FFF72CF8254604EB87091848854215D2C6
:1018100011E02846FFF7DCFF401C58B12846FFF7CF
:1018200087FF82460221FFF72BF88046B8F1090FA7
:1018300001D002E02D1D4D45EBD300BFB8F1090FDB
:101840000CD108E020463168FFF792F8092800D053
:1018500003E0241D361D4C45F4D300BF0120FEF7E4
:10186000FDFFFFF77BF800BFC5E700000000FF1F8A
:10187000704700000CB500200190009034480068CB
:1018800040F480303249086000BF3148006800F4FD
:10189000003000900198401C0190009818B9019800
:1018A000B0F5A04FF1D12A48006800F4003010B123
:1018B0000120009001E0002000900098012846D10E
:1018C00023484030006840F0805021494031086092
:1018D0002048006840F440401E4908601C48083019
:1018E00000681B49083108600846006840F4004061
:1018F00008600846006840F4A05008601648091FB8
:101900000860081F006840F08070091F086000BF71
:101910000F48006800F000700028F9D040F2057010
:101920000E4908600A480830006820F003000849A2
:10193000083108600846006840F00200086000BFF7
:1019400003480830006800F00C000828F8D10CBDEE
:10195000003802400070004008544007003C02403C
:10196000042808D14FF0E021096941F004014FF04B
:10197000E022116107E04FF0E021096921F0040144
:101980004FF0E022116170477047000010B5154814
:10199000006840F47000134908601348006840F084
:1019A00001001149086000200F49083108600E4805
:1019B00000680E4908400C4908600D48091D086080
:1019C000081F006820F48020091F086000200649D5
:1019D0000C310860FFF74EFF4FF00060014980397D
:1019E000086010BD88ED00E000380240FFFFF6FE01
:1019F0001030002410B501210A4800F035F8012804
:101A00000AD10949086980470021064800F048F8D2
:101A10006421044800F042F80121024800F009F86E
:101A200010BD00000008004084020020CA4302826A
:101A30007047CA430282704721B1028842F0010216
:101A4000028004E002884FF6FE731A40028070475D
:101A50000146486A704702460020138A0B400BB1CA
:101A6000012000E00020704730B50246002000232E
:101A70000024158A05EA0103958905EA010413B1DA
:101A80000CB1012000E0002030BD1AB183890B4366
:101A9000838102E083898B4383817047C1627047F1
:101AA0004162704700220288184B98420ED0184BB2
:101AB00098420BD0B0F1804F08D0164B984205D019
:101AC000154B984202D0154B984204D14FF68F73B4
:101AD0001A404B881A43124B984207D0114B984238
:101AE00004D04FF6FF431A400B891A4302804B681B
:101AF000C3620B880385054B984202D0044B984281
:101B000001D18B7A03860123838270470000014054
:101B1000000401400004004000080040000C0040A8
:101B200000100040001400407FB504460D4601211E
:101B30000420FFF79DF8ADF800500020ADF802003A
:101B40000194ADF8080069460D48FFF7ABFF01228C
:101B500011460B48FFF799FF01210948FFF76CFF79
:101B60001E208DF80C0003208DF80D008DF80E005E
:101B700001208DF80F0003A8FFF71CF87FBD0000BF
:101B80000008004010B540F225510B4800F026F83F
:101B900088B1094800F0DCF8C4B208480068B0F524
:101BA000205F08D206480549096844540348006884
:101BB000401C0249086010BD0010014010000020C8
:101BC0007803002021B1828942F40052828104E02E
:101BD00082894DF6FF731A408281704770B50246C4
:101BE000002400230025002040F66A16B14200D1EF
:101BF00000BFC1F3421501F01F03012606FA03F3EB
:101C0000012D02D19689334006E0022D02D1168AB9
:101C1000334001E0968A33400C12012606FA04F4A0
:101C20001688344013B10CB1012000E0002070BDD3
:101C3000F0B50346002400260025002040F66A1770
:101C4000B94200D100BF1846C1F3421401F01F068B
:101C5000012707FA06F5012C01D10C3004E0022C13
:101C600001D1103000E014301AB107682F4307602B
:101C700002E00768AF430760F0BD00002DE9FF47B1
:101C800005460E460024A14600BFA046B08900B11B
:101C900000BF2C8A24F44054F08804432C82AC8981
:101CA00041F20C608443B08831890843718908434C
:101CB0000443AC81AC8A24F44074B0890443AC8200
:101CC0006846FEF7F5FF2048854202D01F4885424E
:101CD00002D1DDF80C9001E0DDF80890A88900F44D
:101CE000004040B109EBC90000EB09103168490020
:101CF000B0FBF1F707E009EBC90000EB0910316810
:101D00008900B0FBF1F76420B7FBF0F00401200973
:101D1000642101FB1078A88900F4004040B1322012
:101D200000EBC800B0FBF1F000F00700044308E04E
:101D3000322000EB08106421B0FBF1F000F00F003E
:101D400004432C81BDE8FF870010014000140140CE
:101D500001468888C0F30800704700BFFEE73038AE
:101D60000A2801D2012070470020704700BF704749
:101D700001460D480068A8B10C4800680A4A12687C
:101D800090420BD008480068086007480068074A7E
:101D900010600020044A1060012070470020034AB0
:101DA0001060FAE70020F8E710000020140000207F
:101DB000F0B502460B46FF24FF25164609E016F84B
:101DC000010B80EA04010648405C80EA05040548EE
:101DD000455C181EA3F10103F1D145EA0420F0BDD2
:101DE000180000201801002010B504466FF0040010
:101DF000FFF7B6FDE11704EB5171C1F3C701074AC4
:101E000011701046007800EB4001C1EBC0104FF696
:101E1000FF7101EAC0000249088010BD04000020E3
:101E20000600002070B504464FF4077094FBF0F0F4
:101E3000C6B24FF4077094FBF0F100FB114085B27D
:101E400005E04FF4077000F02FF8701EC6B2002EA8
:101E5000F7D115B1284600F027F870BD0146114AA8
:101E600012784A434FF0E0235A6100229A611A46E1
:101E7000126942F001021A6100BF4FF0E0221069BE
:101E800000F001021AB100F48032002AF5D04FF0C0
:101E9000E022126922F001024FF0E0231A610022D1
:101EA0009A617047040000200146114A12884A4393
:101EB0004FF0E0235A6100229A611A46126942F0FB
:101EC00001021A6100BF4FF0E022106900F0010228
:101ED0001AB100F48032002AF5D04FF0E0221269E6
:101EE00022F001024FF0E0231A6100229A6170474C
:101EF0000600002000BF054A128802F04002002AB6
:101F0000F9D0C2B2014B9A80704700000010014026
:101F100090B00024534903C9CDE902015248534906
:101F200008604FF4A060FEF781FEA820FFF75CFF79
:101F30004FF4E13000F0FAF84D48416854208847EA
:101F4000FEF7D0FDFEF7F0FD00210420FFF7D6FAE2
:101F500087E0601CC4B2642094FBF0F100FB1140E8
:101F600000286DD10FA9FFF767F89DF83E0000909B
:101F70009DF83D309DF83C203EA104A8FEF7B0F945
:101F80000EA90020FFF71EF89DF83A0000909DF87A
:101F900039309DF83B203CA104A8FEF7A1F99DF83B
:101FA00038203FA104A8FEF79BF902A8FFF7E0FE46
:101FB000002845D00298851E00260298401E3A4906
:101FC000095C0298801E384A105C41EA00272946C5
:101FD0001046FFF7EDFE0646BE422AD133A0FEF7BB
:101FE00073F931493648029AFFF76CFB35A0029924
:101FF000FEF76AF9022202A93748FFF7EDFB37A086
:10200000FEF762F94FF4FA60FFF70CFF00BFBFF371
:102010004F8F1648001D006800F4E0603549084302
:10202000001D1249091D0860BFF34F8F00BF00BF9C
:10203000FEE731A0FEF748F934A0FEF745F900BFEE
:10204000142094FBF0F100FB114038B934480068CB
:1020500008B9012000E00020314908600A20FFF79C
:10206000E1FE76E7DC3201080000010808ED00E03F
:102070008402002054696D653A253032643A253077
:1020800032643A2530326400446174653A32302556
:102090003032642D253032642D253032640000004A
:1020A0005765656B3A25640078030020D3C3BBA74E
:1020B000B3CCD0F2D0A3D1E9B3C9B9A6210D0A009F
:1020C00000000808B4FAC2EBB3A4B6C83A256442CB
:1020D000797465730D0A0000F8FF0F08C9FDBCB6DE
:1020E000B3C9B9A621D7BCB1B8B8B4CEBB2E2E2E79
:1020F0000D0A00000000FA05D3C3BBA7B3CCD0F291
:10210000D0A3D1E9CAA7B0DC210D0A00BCCCD0F81D
:10211000D6B4D0D0BEC9B3CCD0F2210D0A00000095
:10212000A4824242014608687047000010B588B09A
:10213000044601210846FEF78BFD01211020FEF721
:10214000A7FD072209212248FEF7A5FC07220A2144
:102150001F48FEF7A0FC4FF4C060069002208DF8E7
:102160001C008DF81D0000208DF81E0001208DF848
:102170001F0006A91648FEF746FC02940020ADF8A1
:102180000C00ADF80E00ADF81000ADF814000C20F6
:10219000ADF8120002A90F48FFF770FD01210D48AC
:1021A000FFF710FD012240F225510A48FFF740FDDC
:1021B00025208DF8040003208DF805008DF8060019
:1021C00001208DF8070001A8FEF7F4FC08B010BD4F
:1021D000000002400010014030B595B0054613AB39
:1021E00012AA09A9284600F039FA044614B120467B
:1021F00015B030BD0020149026E0224909689DF8F2
:10220000502001EBC20113AB11AA486801A900F0EC
:1022100025FA04460CB12046EAE709A901A800F016
:10222000BBFC60B99DF844009DF84810884201DD70
:102230000220DDE79DF85000124988750AE09DF8FC
:102240005000401CC0B214900E48007D9DF8501004
:102250008842D2DC00BF0B48007D9DF850108842B8
:1022600001D10420C4E714A9284600F0D7FA044697
:102270000CB12046BCE79DF850000249487500208B
:10228000B6E70000840200202DE9F0419AB09C4896
:10229000847D007DA04202DC1AB0BDE8F08198493F
:1022A000096801EBC40106AB07AA486808A900F059
:1022B000D5F908A993A0FEF707F8002644E0904856
:1022C000008B0121B1400840D8B122218FA0FDF739
:1022D000FBFF304600F028FB894924314718394676
:1022E0008BA0FDF7F1FF222188A0FDF7EDFF30461E
:1022F00000F01AFB82492431084410A941F8260055
:1023000018E0304600F010FB7D492431085810A930
:1023100041F826007A48C07D30B910A850F8261040
:102320007CA0FDF7D1FF05E010A850F826107AA098
:10233000FDF7CAFF9DF81C00401EB04202D078A0F5
:10234000FDF7C2FF701CC6B29DF81C008642B6DBCA
:1023500074A0FDF7B9FF00F039FB6948407D0B28F8
:102360000DD2DFE800F0060D151E27323F4E5F72DA
:1023700087006349096851F834008047054690E0BA
:102380005F4A126852F8341010988847054688E072
:102390005B4B1B6853F83420DDE91001904705467C
:1023A0007FE0574F3F6857F8343010A807C8984768
:1023B000054676E0DFF848C1DCF800C05CF8347010
:1023C00010A80FC8B84705466BE01498DFF830C175
:1023D0000090DCF800C05CF8347010A80FC8B84753
:1023E00005465EE0DDE91401DFF814C1CDE9000126
:1023F000DCF800C05CF8347010A80FC8B847054678
:102400004FE0DDE914121698DFF8F4C0CDE90012B0
:102410000290DCF800C05CF8347010A80FC8B84710
:1024200005463EE0DDE91423DDE91610DFF8D0C0F3
:10243000CDE90023CDE90210DCF800C05CF834706F
:1024400010A80FC8B84705462BE0DDE91523DDE9E4
:102450001710CDE90123CDE903101498DFF8A0C0CF
:102460000090DCF800C05CF8347010A80FC8B847C2
:10247000054616E0DDE91623DDE91810CDE9022353
:10248000CDE90410DDE91401DFF874C0CDE90001E5
:10249000DCF800C05CF8347010A80FC8B8470546D7
:1024A00000BF00BF00F050FA9DF8180001280CD1C1
:1024B0001348C07D20B929461BA0FDF705FF07E0A2
:1024C00029461BA0FDF700FF02E018A0FDF7FCFE67
:1024D0000B4890F8EC0088B10948D0F8F0000A21C8
:1024E000B0FBF1F201FB12070548D0F8F000B0FB99
:1024F000F1F83A46414611A0FDF7E6FE00BFCBE6F3
:10250000840200200D0A25732800000025630000C6
:1025100025730000256C7500305825580000000018
:102520002C000000290000003D256C753B0D0A00C1
:102530003D305825583B0D0A0000000046756E637B
:1025400074696F6E2052756E2054696D653A25640A
:102550002E2531646D730D0A00000000F0B50346AE
:102560001546002000220026002455E01F782C2F5D
:1025700001D104B901221F78292F01D01F780FB98A
:1025800004B94AE0002E34D11F78302F02DB1F78C7
:10259000392F11DD1F78612F02DB1F78662F0BDDCD
:1025A0001F78412F02DB1F78462F05DD1F78582F3B
:1025B00002D01F78782F0CD102B12EE01F78612F46
:1025C00003DB1F78203F0F7001E01F780F70491C5C
:1025D0001FE01F78222F04D102B11EE00126012442
:1025E00017E01F78202F14D01F782C2F11D0FF2632
:1025F00013E01F78222F00D1002402B10DE044B176
:102600001F785C2F02D15B1C471CF8B21F780F703B
:10261000491C471CF8B25B1CA8E700BF00270F70DD
:102620002E70F0BD10B50446002010700BE020782D
:102630000870641C491C1078401C10701078984277
:1026400001DB012010BD2078202802D0207800284E
:10265000EDD10020087000BFF4E700002DE9FF4F26
:1026600085B0804689460027002004900390012011
:1026700002904FF0000B002544461DE020782028F2
:1026800016D005F07F00052812DA0DB945F0800557
:1026900005F07F00042803D120782A2800D00EE01E
:1026A000207805F07F010DF80100681CC5B202E03A
:1026B000852D00D103E0641C20780028DED100BF06
:1026C0008DB1002005F07F010DF8010051A1684691
:1026D00000F062FA18B900210898017002E00121A7
:1026E0000898017000254FF0000A444614E0641C6D
:1026F0000AF1010000F0FF0A2078202802D020789B
:102700002A2809D1204600F0D7F90646282E03D002
:102710002A2E01D0CDF810A02078282802D02078C9
:102720000028E4D14446049810B10498401C0444A5
:102730004FF0000A002654E0207810B94FF0010A4B
:1027400050E02078282803D116B9781CC7B213E0CE
:102750002078292808D13EB917B1781EC7B201E008
:102760004FF0010A47B93DE02078222804D10EB984
:10277000012000E00020064647B9207820282FD00D
:10278000207889F8000009F1010929E020782C2837
:1027900004D101200290681CC5B214E020782028E2
:1027A00011D0207828280ED04DB9BBF1050F06DADC
:1027B00020780DF80B000BF1010000F0FF0B0298E0
:1027C000401CC0B20290012F0AD10298022807D102
:1027D0000298401CC0B202900398401CC0B2039003
:1027E000641CA9E700BF0398012809D100200DF857
:1027F0000B0008A1684600F0CFF908B9002003904B
:10280000079903980870002089F80000504609B025
:10281000BDE8F08F766F6964000000002DE9F04399
:10282000B5B005460F460024002604E000213D48CF
:102830008155701CC6B20A2EF8DB06E06D1C2878A4
:1028400018B9012035B0BDE8F08328782828F5D1E3
:102850006D1C61E034AA69462846FFF77FFE0646F4
:1028600035449DF8D00020B1012827D0FF284CD155
:1028700049E09DF8000000B333A9684600F027F94D
:1028800006460EB10220DDE7204600F04DF825494E
:102890000A31339A0A50A1F12400008B0121A14092
:1028A000884320491A39088304211E480155601CB9
:1028B000C4B20A2C01DD0320C4E726E0684600F01C
:1028C00087F9401C00F0FF08204600F02DF815495C
:1028D0000A3100EB01094946684600F06EF91148DB
:1028E0001A38018B0120A040014388B20D491A39E2
:1028F00008830C4800F80480601CC4B20A2C01DD77
:1029000003209FE701E002209CE700BF28782928E8
:1029100001D0287800B900E09CE700BF3C7000209F
:1029200090E700009E02002002460020002105E002
:10293000044B5B5C0344D8B24B1CD9B29142F7DB29
:10294000704700009E02002010B501210D48FFF7DE
:1029500082F8012808D10C48D0F8F0004FF6FF713A
:1029600008440949C1F8F0000648FFF771F8064924
:10297000D1F8F01008440449C1F8F0000846D0F836
:10298000F00010BD000800408402002010B504468D
:1029900004EBC40000EB04100122C2EB800081B202
:1029A0004FF47A70FFF7C0F801200149C87510BDD7
:1029B0008402002010B50246012000E050430B1EA7
:1029C000A1F10104E1B2F9D110BD000010B501215F
:1029D0000848FFF72BF84FF6FF710648FFF75EF83F
:1029E00000210448FFF75CF800200349C1F8F0001B
:1029F00010BD0000000800408402002070B51D4892
:102A0000008800F40040002833D01A4805780020E0
:102A100019494855194881681748884704461CB920
:102A20001649C868804721E0134800F0DDF80546E4
:102A3000012D00D02C46CCB1012C06D0022C08D0A0
:102A4000032C0AD0042C10D10BE00DA0FDF73CFCA8
:102A50000BE00EA0FDF738FC07E00FA0FDF734FCFB
:102A600003E010A0FDF730FC00BF00BF00200149CB
:102A7000088070BD0C000020780300208402002034
:102A8000BAAFCAFDB4EDCEF3210D0A00B2CECAFD35
:102A9000B4EDCEF3210D0A00B2CECAFDCCABB6E048
:102AA000210D0A00CEB4D5D2B5BDC6A5C5E4B5C4C6
:102AB000BAAFCAFD210D0A000146491C00E0491CBD
:102AC0000878202801D10029F9D1087870472DE92C
:102AD000F04307460E4600254FF00A083C4600200A
:102AE00030601FE02078392802DC207830280ADAAC
:102AF0002078462802DC2078412804DA20785828FB
:102B000009D1012D07D12078412801DB4FF01008B1
:102B1000681CC5B205E0207800B904E00120BDE8DA
:102B2000F083641CDEE700BF3C46B8F1100F0FD104
:102B3000032D01DA0220F2E72078302806D16078F0
:102B4000582803D1A41CA81EC5B204E00320E6E760
:102B50000DB90420E3E71BE00DB1681EC5B2207873
:102B6000392806DC2078302803DB2078A0F13009F2
:102B700002E02078A0F1370929464046FFF71AFF06
:102B8000316809FB00103060641C207800B900E057
:102B9000E2E700BF0020C2E702460AE010780B78A7
:102BA000984201D001207047107800B902E0521C11
:102BB000491CF3E700BF0020F5E706E002780A7041
:102BC000027802B902E0401C491CF7E700BF7047D9
:102BD0000146002005E00A7802B903E0421CD0B2A9
:102BE000491CF8E700BF704710B58CB004461E239F
:102BF0000BAA03A92046FFF715FD0090009810B11D
:102C000001200CB010BD9DF82C00044400200B9056
:102C10000EE040489DF82C2050F8221003A8FFF742
:102C2000BBFF00B908E09DF82C00401CC0B20B901F
:102C30009DF82C000728ECD300BF9DF82C00072836
:102C400063D2DFE800F004053C5E6564630000BF0A
:102C500031A0FDF739FB31A0FDF736FB3FA0FDF7B2
:102C600033FB4EA0FDF730FB5CA0FDF72DFB6BA006
:102C7000FDF72AFB79A0FDF727FB86A0FDF724FBD3
:102C80008BA0FDF721FB90A0FDF71EFB94A0FDF7A4
:102C90001BFB99A0FDF718FB9EA0FDF715FBA4A058
:102CA000FDF712FBB0A0FDF70FFBBDA0FDF70CFB7D
:102CB000C8A0FDF709FBD4A0FDF706FB9AE216A019
:102CC000FDF702FBE0A0FDF7FFFA00200B900EE0FD
:102CD000ED4800689DF82C2000EBC2004168EBA095
:102CE000FDF7F2FA9DF82C00401CC0B20B90E648AC
:102CF000007D9DF82C108842EADC07A0FDF7E4FA7D
:102D000078E205A0FDF7E0FAC4E171E245E219E2DC
:102D1000ECE10000280200200D0A00002D2D2D2DD1
:102D20002D2D2D2D2D2D2D2D2D2D2D2D2D2D2D2DD3
:102D30002D2D2D2D55534D4152542056332E312DCE
:102D40002D2D2D2D2D2D2D2D2D2D2D2D2D2D2D2DB3
:102D50002D2D2D2D2D2D2D200D0A00002020202081
:102D600055534D415254CAC7D3C9414C49454E549D
:102D7000454BBFAAB7A2B5C4D2BBB8F6C1E9C7C913
:102D8000B5C4B4AEBFDAB5F7CAD4BBA5BDBBD7E9ED
:102D9000BCFE2CCDA8B9FD200D0A0000CBFC2CC434
:102DA000E3BFC9D2D4CDA8B9FDB4AEBFDAD6FACA52
:102DB000D6B5F7D3C3B3CCD0F2C0EFC3E6B5C4C821
:102DC000CEBACEBAAFCAFD2CB2A2D6B4D0D02ED2D3
:102DD000F2B4CB2CC4E3BFC90D0A0000D2D4CBE6B9
:102DE000D2E2B8FCB8C4BAAFCAFDB5C4CAE4C8EBF5
:102DF000B2CECAFD28D6A7B3D6CAFDD7D628313061
:102E00002F3136BDF8D6C629A1A2D7D6B7FBB4AEAE
:102E1000A1A2BAAFCAFDC8EB0D0A0000BFDAB5D84F
:102E2000D6B7B5C8D7F7CEAAB2CECAFD292CB5A55C
:102E3000B8F6BAAFCAFDD7EEB6E0D6A7B3D63130F2
:102E4000B8F6CAE4C8EBB2CECAFD2CB2A2D6A7B37C
:102E5000D6BAAFCAFDB7B5200D0A0000BBD8D6B5AB
:102E6000CFD4CABE2ED0C2D4F6B2CECAFDCFD4CAF9
:102E7000BEBDF8D6C6C9E8D6C3B9A6C4DC2CD0C23C
:102E8000D4F6BDF8D6C6D7AABBBBB9A6C4DC2E0DF6
:102E90000A000000BCBCCAF5D6A7B3D63A7777774C
:102EA0002E6F70656E6564762E636F6D0D0A00007F
:102EB00055534D415254D3D037B8F6CFB5CDB3C3E7
:102EC000FCC1EE3A0D0A00003F3A202020202020CD
:102ED000BBF1C8A1B0EFD6FAD0C5CFA20D0A000051
:102EE00068656C703A202020BBF1C8A1B0EFD6FA1B
:102EF000D0C5CFA20D0A00006C6973743A2020205F
:102F0000BFC9D3C3B5C4BAAFCAFDC1D0B1ED0D0AB4
:102F10000A00000069643A2020202020BFC9D3C3E2
:102F2000BAAFCAFDB5C44944C1D0B1ED0D0A0A001B
:102F30006865783A20202020B2CECAFD3136BDF82F
:102F4000D6C6CFD4CABE2CBAF3B8FABFD5B8F12BC7
:102F5000CAFDD7D6BCB4D6B4D0D0BDF8D6C6D7AA91
:102F6000BBBB0D0A0A0000006465633A20202020E4
:102F7000B2CECAFD3130BDF8D6C6CFD4CABE2CBA47
:102F8000F3B8FABFD5B8F12BCAFDD7D6BCB4D6B4C6
:102F9000D0D0BDF8D6C6D7AABBBB0D0A0A00000028
:102FA00072756E74696D653A312CBFAAC6F4BAAFFA
:102FB000CAFDD4CBD0D0BCC6CAB13B302CB9D8B135
:102FC000D5BAAFCAFDD4CBD0D0BCC6CAB13B0D0A6E
:102FD0000A000000C7EBB0B4D5D5B3CCD0F2B1E055
:102FE000D0B4B8F1CABDCAE4C8EBBAAFCAFDC3FBDE
:102FF000BCB0B2CECAFDB2A2D2D4BBD8B3B5BCFC71
:10300000BDE1CAF82E0D0A002D2D2D2D2D2D2D2DB3
:103010002D2D2D2D2D2D2D2D2D2D2D2D2D2D2D2DE0
:103020002D2D414C49454E54454B2D2D2D2D2D2DEB
:103030002D2D2D2D2D2D2D2D2D2D2D2D2D2D2D2DC0
:103040002D2D2D200D0A00002D2D2D2D2D2D2D2D5A
:103050002D2D2D2D2D2D2D2D2D2D2D2D2D2D2D2DA0
:103060002DBAAFCAFDC7E5B5A52D2D2D2D2D2D2DC2
:103070002D2D2D2D2D2D2D2D2D2D2D2D2D2D2D2D80
:103080002D2D2D2D200D0A008402002025730D0A00
:103090000000000059A0FDF717F900200B901AE07E
:1030A000664909689DF82C2001EBC20101AB02AA18
:1030B000486803A9FFF7D2FA604800689DF82C1011
:1030C00050F8312003A95EA0FDF7FEF89DF82C0012
:1030D000401CC0B20B905948007D9DF82C108842CE
:1030E000DEDCAFF2CC30FDF7EFF883E0AFF2D830A2
:1030F000FDF7EAF80BAA03A92046FFF72FFA9DF87F
:103100002C00C8B9694603A8FFF7E1FC0B909DF8B5
:103110002C0020B94FA00099FDF7D6F80EE09DF8DD
:103120002C00042801D002206BE54DA0FDF7CCF85F
:1031300001204249C87501E0022062E547A0FDF781
:10314000C3F857E045A0FDF7BFF80BAA03A9204636
:10315000FFF704FA9DF82C00C8B9694603A8FFF7E9
:10316000B6FC0B909DF82C0020B942A00099FDF709
:10317000ABF80EE09DF82C00042801D0022040E5B9
:103180003FA0FDF7A1F800202C49C87501E00220FE
:1031900037E532A0FDF798F82CE030A0FDF794F861
:1031A0000BAA03A92046FFF7D9F99DF82C00C8B94E
:1031B000694603A8FFF78BFC0B909DF82C0078B9AB
:1031C0001E49009881F8EC00084690F8EC0018B110
:1031D00030A0FDF779F807E035A0FDF775F803E0BA
:1031E00002200EE502200CE51CA0FDF76DF801E0C1
:1031F000012006E500BF002003E500002D2D2D2D48
:103200002D2D2D2D2D2D2D2D2D2D2D2D2D2D2D2DEE
:103210002D2D2D2D2DBAAFCAFD204944202D2D2D49
:103220002D2D2D2D2D2D2D2D2D2D2D2D2D2D2D2DCE
:103230002D2D2D2D2D2D2D2D200D0A008402002049
:1032400025732069642069733A0D0A305825303897
:10325000580D0A004845583A305825580D0A0000C4
:103260003136BDF8D6C6B2CECAFDCFD4CABE210D06
:103270000A0000004445433A256C750D0A00000021
:103280003130BDF8D6C6B2CECAFDCFD4CABE210DEC
:103290000A00000052756E2054696D652043616C10
:1032A00063756C6174696F6E204F4E0D0A000000EB
:1032B00052756E2054696D652043616C63756C6155
:1032C00074696F6E204F46460D0A0000016070471A
:1032D0004FF04070E1EE100A70470000000000005F
:1032E000AAAAAAAA303132333435363738394142A6
:1032F0004344454640305800303132333435363758
:103300003839616263646566403078000400000803
:10331000000000000000000200010000100000009A
:103320003F000000646563006964000072756E749C
:10333000696D650068656C70000000006C697374ED
:103340000000000068657800766F6964205254437D
:103350005F5365745F416C61726D412875382077E9
:1033600065656B2C753820686F75722C7538206D0B
:10337000696E2C75382073656329000075382052FA
:1033800054435F5365745F446174652875382079D0
:103390006561722C7538206D6F6E74682C753820DD
:1033A000646174652C7538207765656B29000000B1
:1033B000766F69642077726974655F6164647228EE
:1033C00075333220616464722C7533322076616CFF
:1033D000290000007538205254435F5365745F54D0
:1033E000696D6528753820686F75722C7538206D89
:1033F000696E2C7538207365632C753820616D708B
:103400006D29000075333220726561645F61646408
:10341000722875333220616464722900766F6964A2
:103420002064656C61795F6D7328753136206E6D2F
:1034300073290000766F69642064656C61795F753B
:103440007328753332206E7573290000766F6964B6
:10345000205254435F5365745F57616B6555702804
:10346000753820776B73656C2C75313620636E74FC
:1034700029000000943401080000002078030000B7
:10348000C40101082836010878030020602C0000E0
:103490002002010801192808C1814001C0804104AF
:1034A000690C2908E918A91C091A300916380936C7
:1034B00060092E70092F6000FF00C0C101C3030224
:1034C000C2C60607C705C5C404CC0C0DCD0FCFCEB0
:1034D0000E0ACACB0BC90908C8D81819D91BDBDAE0
:1034E0001A1EDEDF1FDD1D1CDC14D4D515D7171600
:1034F000D6D21213D311D1D010F03031F133F3F210
:103500003236F6F737F53534F43CFCFD3DFF3F3EEF
:10351000FEFA3A3BFB39F9F83828E8E929EB2B2A7F
:10352000EAEE2E2FEF2DEDEC2CE42425E527E7E63F
:103530002622E2E323E12120E0A06061A163A3A2AF
:103540006266A6A767A56564A46CACAD6DAF6F6E2F
:10355000AEAA6A6BAB69A9A86878B8B979BB7B7A5F
:10356000BABE7E7FBF7DBDBC7CB47475B577B7B67F
:103570007672B2B373B17170B0509091519353524F
:103580009296565797559594549C5C5D9D5F9F9E6F
:103590005E5A9A9B5B99595898884849894B8B8AFF
:1035A0004A4E8E8F4F8D4D4C8C44848545874746BF
:1035B000868242438341818042402D0102030404FC
:1035C000180A060708092033010834041A3C041AB3
:1035D00028041A44041A24041A2C04280E25210154
:1035E0000804340108CD320108B0101D1E01081C6A
:1035F000101A5D081A34081ED9140108D4181AB517
:10360000081A7C081A11081A48081AFD081A4C20D2
:103610001344021C208D292819481B892218190CD3
:083620001A087F01DC00000024
:040000050801018964
:00000001FF
